{
    "contractName": "DividendDistributor",
    "abi": [
        {
            "inputs": [],
            "stateMutability": "nonpayable",
            "type": "constructor"
        },
        {
            "inputs": [],
            "name": "claimDividend",
            "outputs": [],
            "stateMutability": "nonpayable",
            "type": "function"
        },
        {
            "inputs": [],
            "name": "deposit",
            "outputs": [],
            "stateMutability": "payable",
            "type": "function"
        },
        {
            "inputs": [],
            "name": "dividendsPerShare",
            "outputs": [
                {
                    "internalType": "uint256",
                    "name": "",
                    "type": "uint256"
                }
            ],
            "stateMutability": "view",
            "type": "function"
        },
        {
            "inputs": [],
            "name": "dividendsPerShareAccuracyFactor",
            "outputs": [
                {
                    "internalType": "uint256",
                    "name": "",
                    "type": "uint256"
                }
            ],
            "stateMutability": "view",
            "type": "function"
        },
        {
            "inputs": [
                {
                    "internalType": "address",
                    "name": "shareholder",
                    "type": "address"
                }
            ],
            "name": "getUnpaidEarnings",
            "outputs": [
                {
                    "internalType": "uint256",
                    "name": "",
                    "type": "uint256"
                }
            ],
            "stateMutability": "view",
            "type": "function"
        },
        {
            "inputs": [],
            "name": "minDistribution",
            "outputs": [
                {
                    "internalType": "uint256",
                    "name": "",
                    "type": "uint256"
                }
            ],
            "stateMutability": "view",
            "type": "function"
        },
        {
            "inputs": [],
            "name": "minPeriod",
            "outputs": [
                {
                    "internalType": "uint256",
                    "name": "",
                    "type": "uint256"
                }
            ],
            "stateMutability": "view",
            "type": "function"
        },
        {
            "inputs": [
                {
                    "internalType": "uint256",
                    "name": "_minPeriod",
                    "type": "uint256"
                },
                {
                    "internalType": "uint256",
                    "name": "_minDistribution",
                    "type": "uint256"
                }
            ],
            "name": "setDistributionCriteria",
            "outputs": [],
            "stateMutability": "nonpayable",
            "type": "function"
        },
        {
            "inputs": [
                {
                    "internalType": "address",
                    "name": "shareholder",
                    "type": "address"
                },
                {
                    "internalType": "uint256",
                    "name": "numShares",
                    "type": "uint256"
                }
            ],
            "name": "setShare",
            "outputs": [],
            "stateMutability": "nonpayable",
            "type": "function"
        },
        {
            "inputs": [
                {
                    "internalType": "address",
                    "name": "",
                    "type": "address"
                }
            ],
            "name": "shareholders",
            "outputs": [
                {
                    "internalType": "uint256",
                    "name": "numShares",
                    "type": "uint256"
                },
                {
                    "internalType": "uint256",
                    "name": "totalExcluded",
                    "type": "uint256"
                },
                {
                    "internalType": "uint256",
                    "name": "lastClaimed",
                    "type": "uint256"
                },
                {
                    "internalType": "uint256",
                    "name": "totalDue",
                    "type": "uint256"
                }
            ],
            "stateMutability": "view",
            "type": "function"
        },
        {
            "inputs": [],
            "name": "totalDistributed",
            "outputs": [
                {
                    "internalType": "uint256",
                    "name": "",
                    "type": "uint256"
                }
            ],
            "stateMutability": "view",
            "type": "function"
        },
        {
            "inputs": [],
            "name": "totalDividends",
            "outputs": [
                {
                    "internalType": "uint256",
                    "name": "",
                    "type": "uint256"
                }
            ],
            "stateMutability": "view",
            "type": "function"
        },
        {
            "inputs": [],
            "name": "totalShares",
            "outputs": [
                {
                    "internalType": "uint256",
                    "name": "",
                    "type": "uint256"
                }
            ],
            "stateMutability": "view",
            "type": "function"
        }
    ],
    "bytecode": "60806040526ec097ce7bc90715b34b9f1000000000600655610e10600755670de0b6b3a764000060085534801561003557600080fd5b50600080546001600160a01b031916331790556106df806100576000396000f3fe6080604052600436106100c25760003560e01c80635c2930ad1161007f578063e2d2e21911610059578063e2d2e219146101ff578063efca2eed14610215578063f0fc6bca1461022b578063ffd49c841461024057600080fd5b80635c2930ad1461017e578063997664d7146101e1578063d0e30db0146101f757600080fd5b806311ce023d146100c757806314b6ca96146100f057806328fd3198146101125780632d48e896146101325780633a98ef39146101525780634fab0ae814610168575b600080fd5b3480156100d357600080fd5b506100dd60065481565b6040519081526020015b60405180910390f35b3480156100fc57600080fd5b5061011061010b3660046105be565b610256565b005b34801561011e57600080fd5b506100dd61012d3660046105e8565b61032d565b34801561013e57600080fd5b5061011061014d36600461060a565b6103dc565b34801561015e57600080fd5b506100dd60025481565b34801561017457600080fd5b506100dd60085481565b34801561018a57600080fd5b506101c16101993660046105e8565b6001602081905260009182526040909120805491810154600282015460039092015490919084565b6040805194855260208501939093529183015260608201526080016100e7565b3480156101ed57600080fd5b506100dd60035481565b6101106103fe565b34801561020b57600080fd5b506100dd60055481565b34801561022157600080fd5b506100dd60045481565b34801561023757600080fd5b50610110610456565b34801561024c57600080fd5b506100dd60075481565b6000546001600160a01b0316331461026d57600080fd5b6001600160a01b038216600090815260016020526040902054156102b1576102948261032d565b6001600160a01b0383166000908152600160205260409020600301555b6001600160a01b03821660009081526001602052604090205460025482916102d891610642565b6102e29190610655565b6002556001600160a01b038216600090815260016020526040902081905561030981610461565b6001600160a01b039092166000908152600160208190526040909120019190915550565b6001600160a01b038116600090815260016020526040812060038101549054158015610357575080155b156103655750600092915050565b6001600160a01b03831660009081526001602052604081205461038790610461565b905060006103958383610655565b6001600160a01b038616600090815260016020819052604090912001549091508082116103c85750600095945050505050565b6103d28183610642565b9695505050505050565b6000546001600160a01b031633146103f357600080fd5b600791909155600855565b6000546001600160a01b0316331461041557600080fd5b6003543490610425908290610655565b600355600254600654610439908390610668565b6104439190610687565b6005546104509190610655565b60055550565b61045f33610484565b565b6000600654600554836104749190610668565b61047e9190610687565b92915050565b6001600160a01b03811660009081526001602052604081205490036104a65750565b6104af8161055a565b6104b65750565b60006104c18261032d565b9050801561055657806004546104d79190610655565b6004556001600160a01b03821660009081526001602052604090204260028201555461050290610461565b6001600160a01b0383166000818152600160208190526040808320918201949094556003018190559151909183156108fc02918491818181858888f19350505050158015610554573d6000803e3d6000fd5b505b5050565b6007546001600160a01b038216600090815260016020526040812060020154909142916105879190610655565b10801561047e575060085461059b8361032d565b1192915050565b80356001600160a01b03811681146105b957600080fd5b919050565b600080604083850312156105d157600080fd5b6105da836105a2565b946020939093013593505050565b6000602082840312156105fa57600080fd5b610603826105a2565b9392505050565b6000806040838503121561061d57600080fd5b50508035926020909101359150565b634e487b7160e01b600052601160045260246000fd5b8181038181111561047e5761047e61062c565b8082018082111561047e5761047e61062c565b60008160001904831182151516156106825761068261062c565b500290565b6000826106a457634e487b7160e01b600052601260045260246000fd5b50049056fea264697066735822122052101cd5e25d178f383a6dbfdef4103b231d0fbc36045a129c491c1387eddd7364736f6c63430008100033",
    "sourcePath": "/home/jrand/hidden_insight/diamondboyz-flawlesstoken-portal/contracts/DividendDistributor.sol",
    "compiler": {
        "name": "solc",
        "version": "0.8.16+commit.07a7930e"
    },
    "functionHashes": {
        "claimDividend()": "f0fc6bca",
        "deposit()": "d0e30db0",
        "dividendsPerShare()": "e2d2e219",
        "dividendsPerShareAccuracyFactor()": "11ce023d",
        "getUnpaidEarnings(address)": "28fd3198",
        "minDistribution()": "4fab0ae8",
        "minPeriod()": "ffd49c84",
        "setDistributionCriteria(uint256,uint256)": "2d48e896",
        "setShare(address,uint256)": "14b6ca96",
        "shareholders(address)": "5c2930ad",
        "totalDistributed()": "efca2eed",
        "totalDividends()": "997664d7",
        "totalShares()": "3a98ef39"
    },
    "gasEstimates": {
        "creation": {
            "codeDepositCost": "351800",
            "executionCost": "90939",
            "totalCost": "442739"
        },
        "external": {
            "claimDividend()": "infinite",
            "deposit()": "infinite",
            "dividendsPerShare()": "2306",
            "dividendsPerShareAccuracyFactor()": "2285",
            "getUnpaidEarnings(address)": "infinite",
            "minDistribution()": "2395",
            "minPeriod()": "2372",
            "setDistributionCriteria(uint256,uint256)": "46666",
            "setShare(address,uint256)": "infinite",
            "shareholders(address)": "8950",
            "totalDistributed()": "2328",
            "totalDividends()": "2329",
            "totalShares()": "2373"
        },
        "internal": {
            "distributeDividend(address)": "infinite",
            "getCumulativeDividends(uint256)": "4383",
            "shouldDistribute(address)": "infinite"
        }
    }
}