{
    "contractName": "FlawlessToken",
    "abi": [
        {
            "inputs": [
                {
                    "internalType": "address",
                    "name": "_migrationBank",
                    "type": "address"
                }
            ],
            "stateMutability": "nonpayable",
            "type": "constructor"
        },
        {
            "anonymous": false,
            "inputs": [
                {
                    "indexed": true,
                    "internalType": "address",
                    "name": "owner",
                    "type": "address"
                },
                {
                    "indexed": true,
                    "internalType": "address",
                    "name": "spender",
                    "type": "address"
                },
                {
                    "indexed": false,
                    "internalType": "uint256",
                    "name": "value",
                    "type": "uint256"
                }
            ],
            "name": "Approval",
            "type": "event"
        },
        {
            "anonymous": false,
            "inputs": [
                {
                    "indexed": false,
                    "internalType": "uint256",
                    "name": "amountBNB",
                    "type": "uint256"
                },
                {
                    "indexed": false,
                    "internalType": "uint256",
                    "name": "amountBOG",
                    "type": "uint256"
                }
            ],
            "name": "AutoLiquify",
            "type": "event"
        },
        {
            "anonymous": false,
            "inputs": [
                {
                    "indexed": false,
                    "internalType": "address",
                    "name": "owner",
                    "type": "address"
                }
            ],
            "name": "OwnershipTransferred",
            "type": "event"
        },
        {
            "anonymous": false,
            "inputs": [
                {
                    "indexed": true,
                    "internalType": "address",
                    "name": "from",
                    "type": "address"
                },
                {
                    "indexed": true,
                    "internalType": "address",
                    "name": "to",
                    "type": "address"
                },
                {
                    "indexed": false,
                    "internalType": "uint256",
                    "name": "value",
                    "type": "uint256"
                }
            ],
            "name": "Transfer",
            "type": "event"
        },
        {
            "inputs": [],
            "name": "DEAD",
            "outputs": [
                {
                    "internalType": "address",
                    "name": "",
                    "type": "address"
                }
            ],
            "stateMutability": "view",
            "type": "function"
        },
        {
            "inputs": [],
            "name": "MAX_INT",
            "outputs": [
                {
                    "internalType": "uint256",
                    "name": "",
                    "type": "uint256"
                }
            ],
            "stateMutability": "view",
            "type": "function"
        },
        {
            "inputs": [],
            "name": "WBNB",
            "outputs": [
                {
                    "internalType": "address",
                    "name": "",
                    "type": "address"
                }
            ],
            "stateMutability": "view",
            "type": "function"
        },
        {
            "inputs": [],
            "name": "_maxTxAmount",
            "outputs": [
                {
                    "internalType": "uint256",
                    "name": "",
                    "type": "uint256"
                }
            ],
            "stateMutability": "view",
            "type": "function"
        },
        {
            "inputs": [
                {
                    "internalType": "address",
                    "name": "account",
                    "type": "address"
                },
                {
                    "internalType": "uint256",
                    "name": "amount",
                    "type": "uint256"
                }
            ],
            "name": "adminMint",
            "outputs": [],
            "stateMutability": "nonpayable",
            "type": "function"
        },
        {
            "inputs": [
                {
                    "internalType": "address",
                    "name": "holder",
                    "type": "address"
                },
                {
                    "internalType": "address",
                    "name": "spender",
                    "type": "address"
                }
            ],
            "name": "allowance",
            "outputs": [
                {
                    "internalType": "uint256",
                    "name": "",
                    "type": "uint256"
                }
            ],
            "stateMutability": "view",
            "type": "function"
        },
        {
            "inputs": [
                {
                    "internalType": "address",
                    "name": "spender",
                    "type": "address"
                },
                {
                    "internalType": "uint256",
                    "name": "amount",
                    "type": "uint256"
                }
            ],
            "name": "approve",
            "outputs": [
                {
                    "internalType": "bool",
                    "name": "",
                    "type": "bool"
                }
            ],
            "stateMutability": "nonpayable",
            "type": "function"
        },
        {
            "inputs": [
                {
                    "internalType": "address",
                    "name": "spender",
                    "type": "address"
                }
            ],
            "name": "approveMax",
            "outputs": [
                {
                    "internalType": "bool",
                    "name": "",
                    "type": "bool"
                }
            ],
            "stateMutability": "nonpayable",
            "type": "function"
        },
        {
            "inputs": [
                {
                    "internalType": "address",
                    "name": "adr",
                    "type": "address"
                }
            ],
            "name": "authorize",
            "outputs": [],
            "stateMutability": "nonpayable",
            "type": "function"
        },
        {
            "inputs": [],
            "name": "autoLiquidityReceiver",
            "outputs": [
                {
                    "internalType": "address",
                    "name": "",
                    "type": "address"
                }
            ],
            "stateMutability": "view",
            "type": "function"
        },
        {
            "inputs": [
                {
                    "internalType": "address",
                    "name": "account",
                    "type": "address"
                }
            ],
            "name": "balanceOf",
            "outputs": [
                {
                    "internalType": "uint256",
                    "name": "",
                    "type": "uint256"
                }
            ],
            "stateMutability": "view",
            "type": "function"
        },
        {
            "inputs": [
                {
                    "internalType": "uint256",
                    "name": "amount",
                    "type": "uint256"
                }
            ],
            "name": "burn",
            "outputs": [],
            "stateMutability": "nonpayable",
            "type": "function"
        },
        {
            "inputs": [],
            "name": "decimals",
            "outputs": [
                {
                    "internalType": "uint8",
                    "name": "",
                    "type": "uint8"
                }
            ],
            "stateMutability": "pure",
            "type": "function"
        },
        {
            "inputs": [],
            "name": "dexRouter",
            "outputs": [
                {
                    "internalType": "address",
                    "name": "",
                    "type": "address"
                }
            ],
            "stateMutability": "view",
            "type": "function"
        },
        {
            "inputs": [],
            "name": "distributorAddress",
            "outputs": [
                {
                    "internalType": "address",
                    "name": "",
                    "type": "address"
                }
            ],
            "stateMutability": "view",
            "type": "function"
        },
        {
            "inputs": [],
            "name": "feeDenominator",
            "outputs": [
                {
                    "internalType": "uint256",
                    "name": "",
                    "type": "uint256"
                }
            ],
            "stateMutability": "view",
            "type": "function"
        },
        {
            "inputs": [],
            "name": "getCirculatingSupply",
            "outputs": [
                {
                    "internalType": "uint256",
                    "name": "",
                    "type": "uint256"
                }
            ],
            "stateMutability": "view",
            "type": "function"
        },
        {
            "inputs": [],
            "name": "getOwner",
            "outputs": [
                {
                    "internalType": "address",
                    "name": "",
                    "type": "address"
                }
            ],
            "stateMutability": "view",
            "type": "function"
        },
        {
            "inputs": [
                {
                    "internalType": "address",
                    "name": "adr",
                    "type": "address"
                }
            ],
            "name": "isAuthorized",
            "outputs": [
                {
                    "internalType": "bool",
                    "name": "",
                    "type": "bool"
                }
            ],
            "stateMutability": "view",
            "type": "function"
        },
        {
            "inputs": [
                {
                    "internalType": "address",
                    "name": "account",
                    "type": "address"
                }
            ],
            "name": "isOwner",
            "outputs": [
                {
                    "internalType": "bool",
                    "name": "",
                    "type": "bool"
                }
            ],
            "stateMutability": "view",
            "type": "function"
        },
        {
            "inputs": [],
            "name": "liquidityFee",
            "outputs": [
                {
                    "internalType": "uint256",
                    "name": "",
                    "type": "uint256"
                }
            ],
            "stateMutability": "view",
            "type": "function"
        },
        {
            "inputs": [],
            "name": "marketingFee",
            "outputs": [
                {
                    "internalType": "uint256",
                    "name": "",
                    "type": "uint256"
                }
            ],
            "stateMutability": "view",
            "type": "function"
        },
        {
            "inputs": [],
            "name": "marketingFeeReceiver",
            "outputs": [
                {
                    "internalType": "address",
                    "name": "",
                    "type": "address"
                }
            ],
            "stateMutability": "view",
            "type": "function"
        },
        {
            "inputs": [
                {
                    "internalType": "uint256",
                    "name": "amount",
                    "type": "uint256"
                }
            ],
            "name": "migrate",
            "outputs": [],
            "stateMutability": "nonpayable",
            "type": "function"
        },
        {
            "inputs": [],
            "name": "migrationBank",
            "outputs": [
                {
                    "internalType": "address",
                    "name": "",
                    "type": "address"
                }
            ],
            "stateMutability": "view",
            "type": "function"
        },
        {
            "inputs": [],
            "name": "name",
            "outputs": [
                {
                    "internalType": "string",
                    "name": "",
                    "type": "string"
                }
            ],
            "stateMutability": "pure",
            "type": "function"
        },
        {
            "inputs": [],
            "name": "oldToken",
            "outputs": [
                {
                    "internalType": "address",
                    "name": "",
                    "type": "address"
                }
            ],
            "stateMutability": "view",
            "type": "function"
        },
        {
            "inputs": [],
            "name": "openMigrate",
            "outputs": [
                {
                    "internalType": "bool",
                    "name": "",
                    "type": "bool"
                }
            ],
            "stateMutability": "view",
            "type": "function"
        },
        {
            "inputs": [],
            "name": "pair",
            "outputs": [
                {
                    "internalType": "address",
                    "name": "",
                    "type": "address"
                }
            ],
            "stateMutability": "view",
            "type": "function"
        },
        {
            "inputs": [],
            "name": "reflectionFee",
            "outputs": [
                {
                    "internalType": "uint256",
                    "name": "",
                    "type": "uint256"
                }
            ],
            "stateMutability": "view",
            "type": "function"
        },
        {
            "inputs": [],
            "name": "router",
            "outputs": [
                {
                    "internalType": "contract IPancakeRouter02",
                    "name": "",
                    "type": "address"
                }
            ],
            "stateMutability": "view",
            "type": "function"
        },
        {
            "inputs": [
                {
                    "internalType": "address",
                    "name": "value",
                    "type": "address"
                }
            ],
            "name": "setAutoLiquidityReceiver",
            "outputs": [],
            "stateMutability": "nonpayable",
            "type": "function"
        },
        {
            "inputs": [
                {
                    "internalType": "uint256",
                    "name": "_minPeriod",
                    "type": "uint256"
                },
                {
                    "internalType": "uint256",
                    "name": "_minDistribution",
                    "type": "uint256"
                }
            ],
            "name": "setDistributionCriteria",
            "outputs": [],
            "stateMutability": "nonpayable",
            "type": "function"
        },
        {
            "inputs": [
                {
                    "internalType": "uint256",
                    "name": "liq",
                    "type": "uint256"
                },
                {
                    "internalType": "uint256",
                    "name": "reflection",
                    "type": "uint256"
                },
                {
                    "internalType": "uint256",
                    "name": "market",
                    "type": "uint256"
                },
                {
                    "internalType": "uint256",
                    "name": "feeDenom",
                    "type": "uint256"
                }
            ],
            "name": "setFees",
            "outputs": [],
            "stateMutability": "nonpayable",
            "type": "function"
        },
        {
            "inputs": [
                {
                    "internalType": "address",
                    "name": "holder",
                    "type": "address"
                },
                {
                    "internalType": "bool",
                    "name": "exempt",
                    "type": "bool"
                }
            ],
            "name": "setIsDividendExempt",
            "outputs": [],
            "stateMutability": "nonpayable",
            "type": "function"
        },
        {
            "inputs": [
                {
                    "internalType": "address",
                    "name": "holder",
                    "type": "address"
                },
                {
                    "internalType": "bool",
                    "name": "exempt",
                    "type": "bool"
                }
            ],
            "name": "setIsFeeExempt",
            "outputs": [],
            "stateMutability": "nonpayable",
            "type": "function"
        },
        {
            "inputs": [
                {
                    "internalType": "address",
                    "name": "holder",
                    "type": "address"
                },
                {
                    "internalType": "bool",
                    "name": "exempt",
                    "type": "bool"
                }
            ],
            "name": "setIsTxLimitExempt",
            "outputs": [],
            "stateMutability": "nonpayable",
            "type": "function"
        },
        {
            "inputs": [
                {
                    "internalType": "address",
                    "name": "value",
                    "type": "address"
                }
            ],
            "name": "setMarketingFeeReceiver",
            "outputs": [],
            "stateMutability": "nonpayable",
            "type": "function"
        },
        {
            "inputs": [
                {
                    "internalType": "bool",
                    "name": "gate",
                    "type": "bool"
                }
            ],
            "name": "setOpenMigrate",
            "outputs": [],
            "stateMutability": "nonpayable",
            "type": "function"
        },
        {
            "inputs": [
                {
                    "internalType": "contract IPancakeRouter02",
                    "name": "value",
                    "type": "address"
                }
            ],
            "name": "setRouter",
            "outputs": [],
            "stateMutability": "nonpayable",
            "type": "function"
        },
        {
            "inputs": [
                {
                    "internalType": "bool",
                    "name": "_enabled",
                    "type": "bool"
                },
                {
                    "internalType": "uint256",
                    "name": "_amount",
                    "type": "uint256"
                }
            ],
            "name": "setSwapBackSettings",
            "outputs": [],
            "stateMutability": "nonpayable",
            "type": "function"
        },
        {
            "inputs": [
                {
                    "internalType": "uint256",
                    "name": "amount",
                    "type": "uint256"
                }
            ],
            "name": "setTxLimit",
            "outputs": [],
            "stateMutability": "nonpayable",
            "type": "function"
        },
        {
            "inputs": [],
            "name": "swapEnabled",
            "outputs": [
                {
                    "internalType": "bool",
                    "name": "",
                    "type": "bool"
                }
            ],
            "stateMutability": "view",
            "type": "function"
        },
        {
            "inputs": [],
            "name": "swapThreshold",
            "outputs": [
                {
                    "internalType": "uint256",
                    "name": "",
                    "type": "uint256"
                }
            ],
            "stateMutability": "view",
            "type": "function"
        },
        {
            "inputs": [],
            "name": "symbol",
            "outputs": [
                {
                    "internalType": "string",
                    "name": "",
                    "type": "string"
                }
            ],
            "stateMutability": "pure",
            "type": "function"
        },
        {
            "inputs": [
                {
                    "internalType": "address",
                    "name": "addr",
                    "type": "address"
                }
            ],
            "name": "testIsDividendExemptAccounts",
            "outputs": [
                {
                    "internalType": "bool",
                    "name": "",
                    "type": "bool"
                }
            ],
            "stateMutability": "view",
            "type": "function"
        },
        {
            "inputs": [
                {
                    "internalType": "address",
                    "name": "addr",
                    "type": "address"
                }
            ],
            "name": "testIsFeeExemptAccounts",
            "outputs": [
                {
                    "internalType": "bool",
                    "name": "",
                    "type": "bool"
                }
            ],
            "stateMutability": "view",
            "type": "function"
        },
        {
            "inputs": [],
            "name": "totalSupply",
            "outputs": [
                {
                    "internalType": "uint256",
                    "name": "",
                    "type": "uint256"
                }
            ],
            "stateMutability": "view",
            "type": "function"
        },
        {
            "inputs": [
                {
                    "internalType": "address",
                    "name": "recipient",
                    "type": "address"
                },
                {
                    "internalType": "uint256",
                    "name": "amount",
                    "type": "uint256"
                }
            ],
            "name": "transfer",
            "outputs": [
                {
                    "internalType": "bool",
                    "name": "",
                    "type": "bool"
                }
            ],
            "stateMutability": "nonpayable",
            "type": "function"
        },
        {
            "inputs": [
                {
                    "internalType": "address",
                    "name": "sender",
                    "type": "address"
                },
                {
                    "internalType": "address",
                    "name": "recipient",
                    "type": "address"
                },
                {
                    "internalType": "uint256",
                    "name": "amount",
                    "type": "uint256"
                }
            ],
            "name": "transferFrom",
            "outputs": [
                {
                    "internalType": "bool",
                    "name": "",
                    "type": "bool"
                }
            ],
            "stateMutability": "nonpayable",
            "type": "function"
        },
        {
            "inputs": [
                {
                    "internalType": "address payable",
                    "name": "adr",
                    "type": "address"
                }
            ],
            "name": "transferOwnership",
            "outputs": [],
            "stateMutability": "nonpayable",
            "type": "function"
        },
        {
            "inputs": [
                {
                    "internalType": "address",
                    "name": "adr",
                    "type": "address"
                }
            ],
            "name": "unauthorize",
            "outputs": [],
            "stateMutability": "nonpayable",
            "type": "function"
        },
        {
            "stateMutability": "payable",
            "type": "receive"
        }
    ],
    "bytecode": "60806040526064600481905560055561012c6006556127106007556101f46009556014805461ffff19166101011790553480156200003c57600080fd5b5060405162002c5138038062002c518339810160408190526200005f91620004f3565b600080546001600160a01b0319163390811782558152600160208190526040909120805460ff191690911790556001600160a01b038116620000a057600080fd5b336001600160a01b03821603620000b657600080fd5b600280546001600160a01b0319166001600160a01b0383811691909117909155601480546301000000600160b81b0319167610ed43c718714eb63d5aa57b78b54704e256024e00000017908190556040805163c45a015560e01b8152905163010000009092049092169163c45a01559160048083019260209291908290030181865afa1580156200014b573d6000803e3d6000fd5b505050506040513d601f19601f82011682018060405250810190620001719190620004f3565b6040516364e329cb60e11b815273bb4cdb9cbd36b01bd1cbaebf2de08d9173bc095c60048201523060248201526001600160a01b03919091169063c9c65396906044016020604051808303816000875af1158015620001d4573d6000803e3d6000fd5b505050506040513d601f19601f82011682018060405250810190620001fa9190620004f3565b600d80546001600160a01b0319166001600160a01b03928316179055600a5430600090815260106020908152604080832060145463010000009004909516835293905282902055516200024d90620004e5565b604051809103906000f0801580156200026a573d6000803e3d6000fd5b50601580546001600160a01b03199081166001600160a01b03938416908117909255600e80548216909217909155336000908152601160208181526040808420805460ff19908116600190811790925560128085528387208054831684179055600280548a168852868652848820805484168517905580548a1688528186528488208054841685179055548916875260138086528488208054841685179055308089529686528488208054841685179055908552838720805483168417905584528286208054821683179055600d549097168552818520805488168217905561dead9094527f2264e2d7bacabe6058f5009f42467b9be28015e7760f87409562384c94ac271c8054909616909317909455600b8054841682179055600c80548416909117905560168054737a983559e130723b70e45bd637773dbdfd3f71db93168317905580516318160ddd60e01b8152905191926318160ddd926004808401938290030181865afa158015620003e5573d6000803e3d6000fd5b505050506040513d601f19601f820116820180604052508101906200040b919062000525565b600a8190556002546001600160a01b03166000908152600f602052604090208190556200043c90610190906200053f565b600355600a5462000451906107d0906200053f565b6008553060009081526010602090815260408083207310ed43c718714eb63d5aa57b78b54704e256024e845282528083206001600160801b0390819055600d546001600160a01b03908116855282852091909155600254600a5492519283521692917fddf252ad1be2c89b69c2b068fc378daa952ba7f163c4a11628f55a4df523b3ef910160405180910390a35062000562565b610736806200251b83390190565b6000602082840312156200050657600080fd5b81516001600160a01b03811681146200051e57600080fd5b9392505050565b6000602082840312156200053857600080fd5b5051919050565b6000826200055d57634e487b7160e01b600052601260045260246000fd5b500490565b611fa980620005726000396000f3fe6080604052600436106103035760003560e01c806383ad799411610190578063c0d78655116100dc578063edafd4ad11610095578063f708a64f1161006f578063f708a64f14610999578063f84ba65d146109b9578063f887ea40146109d9578063fe9fbb8014610a0057600080fd5b8063edafd4ad14610939578063f0b37c0414610959578063f2fde38b1461097957600080fd5b8063c0d7865514610853578063ca33e64c14610873578063dd62ed3e14610893578063df20fd49146108d9578063e58306f9146108f9578063e96fada21461091957600080fd5b806395d89b4111610149578063a8aa1b3111610123578063a8aa1b31146107cb578063a9059cbb146107eb578063b31c710a1461080b578063b6a5d7de1461083357600080fd5b806395d89b411461076957806398118cb414610795578063a51af4c5146107ab57600080fd5b806383ad79941461069457806384def12c146106aa578063893d20e8146106ca5780638a6bffaf146106e85780638dd95002146107085780639449b6341461073057600080fd5b8063313ce5671161024f5780635c85974f116102085780636ddd1713116101e25780636ddd17131461060e5780636fcba3771461062857806370a08231146106485780637d1db4a51461067e57600080fd5b80635c85974f146105b8578063658d4b7f146105d85780636b67c4df146105f857600080fd5b8063313ce567146104e357806342966c68146104ff578063454b06081461051f578063533cb5011461053f578063552a378414610578578063571ac8b01461059857600080fd5b8063180b0d7e116102bc57806323b872dd1161029657806323b872dd1461045d5780632b112e491461047d5780632d48e896146104925780632f54bf6e146104b457600080fd5b8063180b0d7e1461041357806318160ddd146104295780631b31fe101461043e57600080fd5b806303fd2a451461030f5780630445b6671461034257806306fdde03146103665780630758d924146103a0578063095ea7b3146103c8578063098d3228146103f857600080fd5b3661030a57005b600080fd5b34801561031b57600080fd5b5061032561dead81565b6040516001600160a01b0390911681526020015b60405180910390f35b34801561034e57600080fd5b5061035860085481565b604051908152602001610339565b34801561037257600080fd5b50604080518082019091526008815267466c61776c65737360c01b60208201525b6040516103399190611bd2565b3480156103ac57600080fd5b506103257310ed43c718714eb63d5aa57b78b54704e256024e81565b3480156103d457600080fd5b506103e86103e3366004611c38565b610a20565b6040519015158152602001610339565b34801561040457600080fd5b506103586001600160801b0381565b34801561041f57600080fd5b5061035860075481565b34801561043557600080fd5b50600a54610358565b34801561044a57600080fd5b506014546103e890610100900460ff1681565b34801561046957600080fd5b506103e8610478366004611c64565b610a8d565b34801561048957600080fd5b50610358610baa565b34801561049e57600080fd5b506104b26104ad366004611ca5565b610c1a565b005b3480156104c057600080fd5b506103e86104cf366004611cc7565b6000546001600160a01b0391821691161490565b3480156104ef57600080fd5b5060405160128152602001610339565b34801561050b57600080fd5b506104b261051a366004611ce4565b610ca9565b34801561052b57600080fd5b506104b261053a366004611ce4565b610ce8565b34801561054b57600080fd5b506103e861055a366004611cc7565b6001600160a01b031660009081526011602052604090205460ff1690565b34801561058457600080fd5b506104b2610593366004611cc7565b610e4f565b3480156105a457600080fd5b506103e86105b3366004611cc7565b610e96565b3480156105c457600080fd5b506104b26105d3366004611ce4565b610ea4565b3480156105e457600080fd5b506104b26105f3366004611d0b565b610eea565b34801561060457600080fd5b5061035860065481565b34801561061a57600080fd5b506014546103e89060ff1681565b34801561063457600080fd5b506104b2610643366004611d44565b610f3a565b34801561065457600080fd5b50610358610663366004611cc7565b6001600160a01b03166000908152600f602052604090205490565b34801561068a57600080fd5b5061035860035481565b3480156106a057600080fd5b5061035860055481565b3480156106b657600080fd5b50600254610325906001600160a01b031681565b3480156106d657600080fd5b506000546001600160a01b0316610325565b3480156106f457600080fd5b506104b2610703366004611d76565b610fd3565b34801561071457600080fd5b5061032573bb4cdb9cbd36b01bd1cbaebf2de08d9173bc095c81565b34801561073c57600080fd5b506103e861074b366004611cc7565b6001600160a01b031660009081526013602052604090205460ff1690565b34801561077557600080fd5b50604080518082019091526003815262464c5360e81b6020820152610393565b3480156107a157600080fd5b5061035860045481565b3480156107b757600080fd5b50600e54610325906001600160a01b031681565b3480156107d757600080fd5b50600d54610325906001600160a01b031681565b3480156107f757600080fd5b506103e8610806366004611c38565b611012565b34801561081757600080fd5b50610325737a983559e130723b70e45bd637773dbdfd3f71db81565b34801561083f57600080fd5b506104b261084e366004611cc7565b61101f565b34801561085f57600080fd5b506104b261086e366004611cc7565b611070565b34801561087f57600080fd5b50600b54610325906001600160a01b031681565b34801561089f57600080fd5b506103586108ae366004611d93565b6001600160a01b03918216600090815260106020908152604080832093909416825291909152205490565b3480156108e557600080fd5b506104b26108f4366004611dc1565b6110c1565b34801561090557600080fd5b506104b2610914366004611c38565b6110fd565b34801561092557600080fd5b50600c54610325906001600160a01b031681565b34801561094557600080fd5b506104b2610954366004611cc7565b611130565b34801561096557600080fd5b506104b2610974366004611cc7565b611177565b34801561098557600080fd5b506104b2610994366004611cc7565b6111c2565b3480156109a557600080fd5b506104b26109b4366004611d0b565b611258565b3480156109c557600080fd5b506104b26109d4366004611d0b565b61135c565b3480156109e557600080fd5b5060145461032590630100000090046001600160a01b031681565b348015610a0c57600080fd5b506103e8610a1b366004611cc7565b6113ac565b3360008181526010602090815260408083206001600160a01b038716808552925280832085905551919290917f8c5be1e5ebec7d5bd14f71427d1e84f3dd0314c0f7b2291e5b200ac8c7c3b92590610a7b9086815260200190565b60405180910390a35060015b92915050565b60006001600160a01b0384163314610b10576001600160a01b0384166000908152601060209081526040808320338452909152902054821115610b105760405162461bcd60e51b8152602060048201526016602482015275496e73756666696369656e7420616c6c6f77616e636560501b60448201526064015b60405180910390fd5b6001600160a01b03841660009081526010602090815260408083203384529091529020546001600160801b0314610b95576001600160a01b0384166000908152601060209081526040808320338452909152902054610b70908390611df5565b6001600160a01b03851660009081526010602090815260408083203384529091529020555b610ba08484846113ca565b90505b9392505050565b600f6020527ff4803e074bd026baaf6ed2e288c9515f68c72fb7216eebdd7cae1718a53ec3755461dead60009081527f99629f56119585bf27511b6b7d295dffb54757453fcc3dabcf51d92028301f1054600a54919291610c0b9190611df5565b610c159190611df5565b905090565b610c23336113ac565b610c3f5760405162461bcd60e51b8152600401610b0790611e08565b6015546040516316a4744b60e11b815260048101849052602481018390526001600160a01b0390911690632d48e896906044015b600060405180830381600087803b158015610c8d57600080fd5b505af1158015610ca1573d6000803e3d6000fd5b505050505050565b336000908152600f6020526040902054610cc4908290611df5565b336000908152600f6020526040902055600a54610ce2908290611df5565b600a5550565b60145460ff610100909104161515600114610d0257600080fd5b6016546040516323b872dd60e01b815233600482015261dead6024820152604481018390526001600160a01b03909116906323b872dd906064016020604051808303816000875af1158015610d5b573d6000803e3d6000fd5b505050506040513d601f19601f82011682018060405250810190610d7f9190611e2d565b1515600114610dd05760405162461bcd60e51b815260206004820152601860248201527f4661696c656420746f206275726e206f6c6420746f6b656e00000000000000006044820152606401610b07565b600254610de7906001600160a01b03163383611626565b50601554604051630a5b654b60e11b8152336004820152602481018390526001600160a01b03909116906314b6ca9690604401600060405180830381600087803b158015610e3457600080fd5b505af1158015610e48573d6000803e3d6000fd5b5050505050565b610e58336113ac565b610e745760405162461bcd60e51b8152600401610b0790611e08565b600b80546001600160a01b0319166001600160a01b0392909216919091179055565b6000610a8782600a54610a20565b610ead336113ac565b610ec95760405162461bcd60e51b8152600401610b0790611e08565b6103e8600a54610ed99190611e4a565b811015610ee557600080fd5b600355565b610ef3336113ac565b610f0f5760405162461bcd60e51b8152600401610b0790611e08565b6001600160a01b03919091166000908152601160205260409020805460ff1916911515919091179055565b610f43336113ac565b610f5f5760405162461bcd60e51b8152600401610b0790611e08565b610f6a600582611e4a565b841115610f7657600080fd5b610f81600582611e4a565b831115610f8d57600080fd5b610f98600582611e4a565b821115610fa457600080fd5b60048490556005839055600682905581610fbe8486611e6c565b610fc89190611e6c565b600955600755505050565b610fdc336113ac565b610ff85760405162461bcd60e51b8152600401610b0790611e08565b601480549115156101000261ff0019909216919091179055565b6000610ba33384846113ca565b6000546001600160a01b031633146110495760405162461bcd60e51b8152600401610b0790611e7f565b6001600160a01b03166000908152600160208190526040909120805460ff19169091179055565b611079336113ac565b6110955760405162461bcd60e51b8152600401610b0790611e08565b601480546001600160a01b039092166301000000026301000000600160b81b0319909216919091179055565b6110ca336113ac565b6110e65760405162461bcd60e51b8152600401610b0790611e08565b6014805460ff191692151592909217909155600855565b611106336113ac565b6111225760405162461bcd60e51b8152600401610b0790611e08565b61112c828261169d565b5050565b611139336113ac565b6111555760405162461bcd60e51b8152600401610b0790611e08565b600c80546001600160a01b0319166001600160a01b0392909216919091179055565b6000546001600160a01b031633146111a15760405162461bcd60e51b8152600401610b0790611e7f565b6001600160a01b03166000908152600160205260409020805460ff19169055565b6000546001600160a01b031633146111ec5760405162461bcd60e51b8152600401610b0790611e7f565b600080546001600160a01b0319166001600160a01b038316908117825580825260016020818152604093849020805460ff191690921790915591519081527f04dba622d284ed0014ee4b9a6a68386be1a4c08a4913ae272de89199cc686163910160405180910390a150565b611261336113ac565b61127d5760405162461bcd60e51b8152600401610b0790611e08565b6001600160a01b03821630148015906112a45750600d546001600160a01b03838116911614155b6112ad57600080fd5b6001600160a01b0382166000908152601360205260409020805460ff1916821580159190911790915561131357601554604051630a5b654b60e11b81526001600160a01b03848116600483015260006024830152909116906314b6ca9690604401610c73565b6015546001600160a01b038381166000818152600f602052604090819020549051630a5b654b60e11b8152600481019290925260248201529116906314b6ca9690604401610c73565b611365336113ac565b6113815760405162461bcd60e51b8152600401610b0790611e08565b6001600160a01b03919091166000908152601260205260409020805460ff1916911515919091179055565b6001600160a01b031660009081526001602052604090205460ff1690565b60145460009062010000900460ff16156113f0576113e9848484611626565b9050610ba3565b6113fa84836116ef565b611402611758565b1561140f5761140f6117ad565b6001600160a01b0384166000908152600f6020526040902054611433908390611df5565b6001600160a01b0385166000908152600f6020908152604080832093909355601190529081205460ff16156114685782611472565b6114728584611b2b565b6001600160a01b0385166000908152600f6020526040902054909150611499908290611e6c565b6001600160a01b038086166000908152600f602090815260408083209490945591881681526013909152205460ff1661153d576015546001600160a01b038681166000818152600f602052604090819020549051630a5b654b60e11b8152600481019290925260248201529116906314b6ca9690604401600060405180830381600087803b15801561152a57600080fd5b505af192505050801561153b575060015b505b6001600160a01b03841660009081526013602052604090205460ff166115ce576015546001600160a01b038581166000818152600f602052604090819020549051630a5b654b60e11b8152600481019290925260248201529116906314b6ca9690604401600060405180830381600087803b1580156115bb57600080fd5b505af19250505080156115cc575060015b505b836001600160a01b0316856001600160a01b03167fddf252ad1be2c89b69c2b068fc378daa952ba7f163c4a11628f55a4df523b3ef8360405161161391815260200190565b60405180910390a3506001949350505050565b6001600160a01b0383166000908152600f602052604081205461164a908390611df5565b6001600160a01b038086166000908152600f6020526040808220939093559085168152205461167a908390611e6c565b6001600160a01b0384166000908152600f60205260409020555060019392505050565b6001600160a01b0382166000908152600f60205260409020546116c1908290611e6c565b6001600160a01b0383166000908152600f6020526040902055600a546116e8908290611e6c565b600a555050565b6003548111158061171857506001600160a01b03821660009081526012602052604090205460ff165b61112c5760405162461bcd60e51b8152602060048201526011602482015270151608131a5b5a5d08115e18d959591959607a1b6044820152606401610b07565b600d546000906001600160a01b0316331480159061177f575060145462010000900460ff16155b801561178d575060145460ff165b8015610c15575050600854306000908152600f6020526040902054101590565b6014805462ff000019166201000017905560095460045460085460009260029290916117d99190611e9f565b6117e39190611e4a565b6117ed9190611e4a565b90506000816008546117ff9190611df5565b6040805160028082526060820183529293506000929091602083019080368337019050509050308160008151811061183957611839611ebe565b60200260200101906001600160a01b031690816001600160a01b03168152505073bb4cdb9cbd36b01bd1cbaebf2de08d9173bc095c8160018151811061188157611881611ebe565b6001600160a01b03928316602091820292909201015260145460405163791ac94760e01b8152479263010000009092049091169063791ac947906118d2908690600090879030904290600401611ed4565b600060405180830381600087803b1580156118ec57600080fd5b505af1158015611900573d6000803e3d6000fd5b50505050600081476119129190611df5565b9050600060026004546119259190611e4a565b6009546119329190611df5565b90506000600282600454856119479190611e9f565b6119519190611e4a565b61195b9190611e4a565b90506000826005548561196e9190611e9f565b6119789190611e4a565b90506000836006548661198b9190611e9f565b6119959190611e4a565b9050601560009054906101000a90046001600160a01b03166001600160a01b031663d0e30db0836040518263ffffffff1660e01b81526004016000604051808303818588803b1580156119e757600080fd5b505af1935050505080156119f9575060015b50600c546040516001600160a01b039091169082156108fc029083906000818181858888f19350505050158015611a34573d6000803e3d6000fd5b508815611b1457601454600b5460405163f305d71960e01b8152306004820152602481018c905260006044820181905260648201526001600160a01b0391821660848201524260a48201526301000000909204169063f305d71990859060c40160606040518083038185885af1158015611ab2573d6000803e3d6000fd5b50505050506040513d601f19601f82011682018060405250810190611ad79190611f45565b505060408051858152602081018c90527f424db2872186fa7e7afa7a5e902ed3b49a2ef19c2f5431e672462495dd6b450692500160405180910390a15b50506014805462ff00001916905550505050505050565b60008060075460095484611b3f9190611e9f565b611b499190611e4a565b306000908152600f6020526040902054909150611b67908290611e6c565b306000818152600f6020526040908190209290925590516001600160a01b038616907fddf252ad1be2c89b69c2b068fc378daa952ba7f163c4a11628f55a4df523b3ef90611bb89085815260200190565b60405180910390a3611bca8184611df5565b949350505050565b600060208083528351808285015260005b81811015611bff57858101830151858201604001528201611be3565b506000604082860101526040601f19601f8301168501019250505092915050565b6001600160a01b0381168114611c3557600080fd5b50565b60008060408385031215611c4b57600080fd5b8235611c5681611c20565b946020939093013593505050565b600080600060608486031215611c7957600080fd5b8335611c8481611c20565b92506020840135611c9481611c20565b929592945050506040919091013590565b60008060408385031215611cb857600080fd5b50508035926020909101359150565b600060208284031215611cd957600080fd5b8135610ba381611c20565b600060208284031215611cf657600080fd5b5035919050565b8015158114611c3557600080fd5b60008060408385031215611d1e57600080fd5b8235611d2981611c20565b91506020830135611d3981611cfd565b809150509250929050565b60008060008060808587031215611d5a57600080fd5b5050823594602084013594506040840135936060013592509050565b600060208284031215611d8857600080fd5b8135610ba381611cfd565b60008060408385031215611da657600080fd5b8235611db181611c20565b91506020830135611d3981611c20565b60008060408385031215611dd457600080fd5b8235611c5681611cfd565b634e487b7160e01b600052601160045260246000fd5b81810381811115610a8757610a87611ddf565b6020808252600b908201526a085055551213d49256915160aa1b604082015260600190565b600060208284031215611e3f57600080fd5b8151610ba381611cfd565b600082611e6757634e487b7160e01b600052601260045260246000fd5b500490565b80820180821115610a8757610a87611ddf565b60208082526006908201526510a7aba722a960d11b604082015260600190565b6000816000190483118215151615611eb957611eb9611ddf565b500290565b634e487b7160e01b600052603260045260246000fd5b600060a082018783526020878185015260a0604085015281875180845260c086019150828901935060005b81811015611f245784516001600160a01b031683529383019391830191600101611eff565b50506001600160a01b03969096166060850152505050608001529392505050565b600080600060608486031215611f5a57600080fd5b835192506020840151915060408401519050925092509256fea2646970667358221220372d34c59889229fda72c7a8de63d1aa58d46d63ecc14c6d60e2188943bf4cdd64736f6c6343000810003360806040526ec097ce7bc90715b34b9f1000000000600655610e10600755670de0b6b3a764000060085534801561003557600080fd5b50600080546001600160a01b031916331790556106df806100576000396000f3fe6080604052600436106100c25760003560e01c80635c2930ad1161007f578063e2d2e21911610059578063e2d2e219146101ff578063efca2eed14610215578063f0fc6bca1461022b578063ffd49c841461024057600080fd5b80635c2930ad1461017e578063997664d7146101e1578063d0e30db0146101f757600080fd5b806311ce023d146100c757806314b6ca96146100f057806328fd3198146101125780632d48e896146101325780633a98ef39146101525780634fab0ae814610168575b600080fd5b3480156100d357600080fd5b506100dd60065481565b6040519081526020015b60405180910390f35b3480156100fc57600080fd5b5061011061010b3660046105be565b610256565b005b34801561011e57600080fd5b506100dd61012d3660046105e8565b61032d565b34801561013e57600080fd5b5061011061014d36600461060a565b6103dc565b34801561015e57600080fd5b506100dd60025481565b34801561017457600080fd5b506100dd60085481565b34801561018a57600080fd5b506101c16101993660046105e8565b6001602081905260009182526040909120805491810154600282015460039092015490919084565b6040805194855260208501939093529183015260608201526080016100e7565b3480156101ed57600080fd5b506100dd60035481565b6101106103fe565b34801561020b57600080fd5b506100dd60055481565b34801561022157600080fd5b506100dd60045481565b34801561023757600080fd5b50610110610456565b34801561024c57600080fd5b506100dd60075481565b6000546001600160a01b0316331461026d57600080fd5b6001600160a01b038216600090815260016020526040902054156102b1576102948261032d565b6001600160a01b0383166000908152600160205260409020600301555b6001600160a01b03821660009081526001602052604090205460025482916102d891610642565b6102e29190610655565b6002556001600160a01b038216600090815260016020526040902081905561030981610461565b6001600160a01b039092166000908152600160208190526040909120019190915550565b6001600160a01b038116600090815260016020526040812060038101549054158015610357575080155b156103655750600092915050565b6001600160a01b03831660009081526001602052604081205461038790610461565b905060006103958383610655565b6001600160a01b038616600090815260016020819052604090912001549091508082116103c85750600095945050505050565b6103d28183610642565b9695505050505050565b6000546001600160a01b031633146103f357600080fd5b600791909155600855565b6000546001600160a01b0316331461041557600080fd5b6003543490610425908290610655565b600355600254600654610439908390610668565b6104439190610687565b6005546104509190610655565b60055550565b61045f33610484565b565b6000600654600554836104749190610668565b61047e9190610687565b92915050565b6001600160a01b03811660009081526001602052604081205490036104a65750565b6104af8161055a565b6104b65750565b60006104c18261032d565b9050801561055657806004546104d79190610655565b6004556001600160a01b03821660009081526001602052604090204260028201555461050290610461565b6001600160a01b0383166000818152600160208190526040808320918201949094556003018190559151909183156108fc02918491818181858888f19350505050158015610554573d6000803e3d6000fd5b505b5050565b6007546001600160a01b038216600090815260016020526040812060020154909142916105879190610655565b10801561047e575060085461059b8361032d565b1192915050565b80356001600160a01b03811681146105b957600080fd5b919050565b600080604083850312156105d157600080fd5b6105da836105a2565b946020939093013593505050565b6000602082840312156105fa57600080fd5b610603826105a2565b9392505050565b6000806040838503121561061d57600080fd5b50508035926020909101359150565b634e487b7160e01b600052601160045260246000fd5b8181038181111561047e5761047e61062c565b8082018082111561047e5761047e61062c565b60008160001904831182151516156106825761068261062c565b500290565b6000826106a457634e487b7160e01b600052601260045260246000fd5b50049056fea264697066735822122052101cd5e25d178f383a6dbfdef4103b231d0fbc36045a129c491c1387eddd7364736f6c63430008100033",
    "sourcePath": "/home/jrand/hidden_insight/diamondboyz-flawlesstoken-portal/contracts/FlawlessToken.sol",
    "compiler": {
        "name": "solc",
        "version": "0.8.16+commit.07a7930e"
    },
    "functionHashes": {
        "DEAD()": "03fd2a45",
        "MAX_INT()": "098d3228",
        "WBNB()": "8dd95002",
        "_maxTxAmount()": "7d1db4a5",
        "adminMint(address,uint256)": "e58306f9",
        "allowance(address,address)": "dd62ed3e",
        "approve(address,uint256)": "095ea7b3",
        "approveMax(address)": "571ac8b0",
        "authorize(address)": "b6a5d7de",
        "autoLiquidityReceiver()": "ca33e64c",
        "balanceOf(address)": "70a08231",
        "burn(uint256)": "42966c68",
        "decimals()": "313ce567",
        "dexRouter()": "0758d924",
        "distributorAddress()": "a51af4c5",
        "feeDenominator()": "180b0d7e",
        "getCirculatingSupply()": "2b112e49",
        "getOwner()": "893d20e8",
        "isAuthorized(address)": "fe9fbb80",
        "isOwner(address)": "2f54bf6e",
        "liquidityFee()": "98118cb4",
        "marketingFee()": "6b67c4df",
        "marketingFeeReceiver()": "e96fada2",
        "migrate(uint256)": "454b0608",
        "migrationBank()": "84def12c",
        "name()": "06fdde03",
        "oldToken()": "b31c710a",
        "openMigrate()": "1b31fe10",
        "pair()": "a8aa1b31",
        "reflectionFee()": "83ad7994",
        "router()": "f887ea40",
        "setAutoLiquidityReceiver(address)": "552a3784",
        "setDistributionCriteria(uint256,uint256)": "2d48e896",
        "setFees(uint256,uint256,uint256,uint256)": "6fcba377",
        "setIsDividendExempt(address,bool)": "f708a64f",
        "setIsFeeExempt(address,bool)": "658d4b7f",
        "setIsTxLimitExempt(address,bool)": "f84ba65d",
        "setMarketingFeeReceiver(address)": "edafd4ad",
        "setOpenMigrate(bool)": "8a6bffaf",
        "setRouter(address)": "c0d78655",
        "setSwapBackSettings(bool,uint256)": "df20fd49",
        "setTxLimit(uint256)": "5c85974f",
        "swapEnabled()": "6ddd1713",
        "swapThreshold()": "0445b667",
        "symbol()": "95d89b41",
        "testIsDividendExemptAccounts(address)": "9449b634",
        "testIsFeeExemptAccounts(address)": "533cb501",
        "totalSupply()": "18160ddd",
        "transfer(address,uint256)": "a9059cbb",
        "transferFrom(address,address,uint256)": "23b872dd",
        "transferOwnership(address)": "f2fde38b",
        "unauthorize(address)": "f0b37c04"
    },
    "gasEstimates": {
        "creation": {
            "codeDepositCost": "1621000",
            "executionCost": "infinite",
            "totalCost": "infinite"
        },
        "external": {
            "DEAD()": "252",
            "MAX_INT()": "364",
            "WBNB()": "339",
            "_maxTxAmount()": "2428",
            "adminMint(address,uint256)": "infinite",
            "allowance(address,address)": "infinite",
            "approve(address,uint256)": "24629",
            "approveMax(address)": "infinite",
            "authorize(address)": "26889",
            "autoLiquidityReceiver()": "2393",
            "balanceOf(address)": "2642",
            "burn(uint256)": "infinite",
            "decimals()": "223",
            "dexRouter()": "318",
            "distributorAddress()": "2438",
            "feeDenominator()": "2364",
            "getCirculatingSupply()": "infinite",
            "getOwner()": "2410",
            "isAuthorized(address)": "2687",
            "isOwner(address)": "2620",
            "liquidityFee()": "2385",
            "marketingFee()": "2407",
            "marketingFeeReceiver()": "2481",
            "migrate(uint256)": "infinite",
            "migrationBank()": "2394",
            "name()": "infinite",
            "oldToken()": "316",
            "openMigrate()": "2434",
            "pair()": "2393",
            "reflectionFee()": "2341",
            "router()": "2447",
            "setAutoLiquidityReceiver(address)": "26935",
            "setDistributionCriteria(uint256,uint256)": "infinite",
            "setFees(uint256,uint256,uint256,uint256)": "infinite",
            "setIsDividendExempt(address,bool)": "infinite",
            "setIsFeeExempt(address,bool)": "infinite",
            "setIsTxLimitExempt(address,bool)": "infinite",
            "setMarketingFeeReceiver(address)": "26868",
            "setOpenMigrate(bool)": "26885",
            "setRouter(address)": "26857",
            "setSwapBackSettings(bool,uint256)": "48997",
            "setTxLimit(uint256)": "26817",
            "swapEnabled()": "2377",
            "swapThreshold()": "2364",
            "symbol()": "infinite",
            "testIsDividendExemptAccounts(address)": "2699",
            "testIsFeeExemptAccounts(address)": "2655",
            "totalSupply()": "2383",
            "transfer(address,uint256)": "infinite",
            "transferFrom(address,address,uint256)": "infinite",
            "transferOwnership(address)": "52168",
            "unauthorize(address)": "26827"
        },
        "internal": {
            "_basicTransfer(address,address,uint256)": "infinite",
            "_transferFrom(address,address,uint256)": "infinite",
            "checkTxLimit(address,uint256)": "infinite",
            "mint(address,uint256)": "infinite",
            "shouldSwapBack()": "10732",
            "shouldTakeFee(address)": "infinite",
            "swapBack()": "infinite",
            "takeFee(address,uint256)": "infinite"
        }
    }
}